:020000040800F2
:10000000E81C0020192D000829560008ED2C0008D6
:10001000ED2C0008ED2C0008ED2C0008000000007D
:10002000000000000000000000000000C1260008E1
:10003000ED2C00080000000079260008D9370008E0
:100040003D2700083D2700083D2700083D27000800
:100050003D2700083D2700083D2700083D270008F0
:100060003D2700083D2700083D2700083D270008E0
:100070003D2700083D2700083D2700083D270008D0
:100080003D2700083D2700083D2700083D270008C0
:100090003D2700083D2700083D2700083D270008B0
:1000A0003D2700083D2700083D2700083D270008A0
:1000B0003D2700083D2700083D2700083D27000890
:1000C0003D2700083D2700083D2700083D27000880
:1000D0003D2700083D2700083D2700083D27000870
:1000E0003D2700083D2700083D2700083D27000860
:1000F0003D2700083D2700083D2700083D27000850
:100100003D2700083D2700083D2700083D2700083F
:100110003D2700083D2700083D2700083D2700082F
:100120003D2700083D2700083D2700083D2700081F
:1001300053B94AB9002908BF00281CBF4FF0FF314E
:100140004FF0FF3000F00CB8ADF1080C6DE904CEB3
:1001500000F008F8DDF804E0DDE9022304B07047A0
:10016000704700BF2DE9F04786468C460846154685
:1001700074461946089E002B40F0C2808542B2FAB0
:1001800082F245D94AB1C2F1200300FA02FC2EFAEC
:1001900003F3954043EA0C0C94404FEA154EBCFB28
:1001A000FEF8A8B20EFB18CC08FB00F9230C43EABA
:1001B0000C43994528D9EB1808F1FF3704D299452B
:1001C00002D9A8F102072B44A3EB0903B3FBFEFC01
:1001D0000EFB1C330CFB00F0A4B244EA0344A04223
:1001E00014D92C190CF1FF3304D2A04202D9ACF17E
:1001F00002032C44241A43EA07401EB10023D440D2
:1002000034607360BDE8F0874746DDE76346F1E799
:1002100092BB0121431B4FEA154EB3FBFEFCAFB26C
:100220000EFB1C330CFB07F8200C40EA03439845F7
:1002300062D9EB180CF1FF3004D2984502D9ACF129
:1002400002002B44A3EB0803B3FBFEFC0EFB1C33A4
:100250000CFB07F7A4B244EA0344A7424ED92C1979
:100260000CF1FF3304D2A74202D9ACF102032C44B3
:10027000E41B43EA0040C0E7C2F12003954020FAA6
:1002800003F12EFA03F34FEA154EB1FBFEFC90404A
:100290000343AFB20EFB1C100CFB07F8190C41EA2C
:1002A0000041884504FA02F422D969180CF1FF30A4
:1002B00004D2884502D9ACF102002944A1EB08011F
:1002C000B1FBFEFC0EFB1C110CFB07F79BB243EAD3
:1002D00001439F420ED9EB180CF1FF3104D29F422B
:1002E00002D9ACF102012B44DB1B41EA004192E749
:1002F0006046E3E76146F7E76046A3E76346B7E792
:10030000834206D916B9002108467BE7C6E900E01A
:10031000F9E7B3FA83F78FB9834201D3724508D85E
:10032000BEEB020460EB030301209C461EB90021D2
:1003300068E73846FAE7C6E9004CF8E7C7F1200C51
:10034000BB4022FA0CF41C434FEA144920FA0CF388
:10035000B3FBF9F8B8402EFA0CF101430EFA07F599
:1003600009FB18301FFA84FE08FB0EFA0B0C43EA57
:1003700000439A4502FA07F240D9E31808F1FF302A
:1003800004D29A4502D9A8F102002344A3EB0A0340
:10039000B3FBF9F809FB183308FB0EFE89B241EAFA
:1003A00003418E452CD9611808F1FF3304D28E45E4
:1003B00002D9A8F10203214443EA0040A0FB0298BD
:1003C000A1EB0E014145CE46434602D306D14D4531
:1003D00004D2B9EB020E68EB04030138002EA6D05C
:1003E000B5EB0E0261EB030101FA0CFC22FA07F3F4
:1003F0004CEA0303F940C6E9003198E74046C5E7F7
:100400004346D9E72DE9FF4106220021684605F061
:1004100027F90622002102A805F022F9184804F065
:1004200042FD184C6946A36820465B689847164809
:1004300004F039FD42F21070002104F041FA134F2C
:10044000DFF84C8000214FF4FA6004F039FA3846A6
:1004500004F029FDA36802A920461B68984740467E
:1004600004F021FD00210B4D02AE16F8010B04F043
:10047000A8FC0131062905F8010BF6D1E2E700BF1F
:100480008467000870630008886700088C670008AC
:1004900090670008B40800202DE9F04F91B0009358
:1004A00002F004030293C2F3C2030133840705463A
:1004B0000E46DDF868900392059340F0BB81041D61
:1004C00030B1072909D86FF01B0011B0BDE8F08FDB
:1004D00001F00706341DC6F10806009B4FF0000826
:1004E0004FF0040A591E4FF0FF3347460193C346AD
:1004F0005346CDF810800DB1009A2260059800286F
:1005000000F3E8809848009A824203D397488242D9
:10051000C0F0E080039AA4EB050E92074FEA9E001C
:1005200000F103810F2F00F2B180002D00F0058152
:1005300007F140020DEB020C019A0CF8200C0CF8AC
:10054000102C049801300490E7E07A285DD84B28FD
:100550000ED8472859D829282DD8252852D054D824
:1005600020287AD02338D0F1000B4BEB000B74E03D
:100570004C382E2849D8DFE800F0704848484848F1
:100580004848484848484B484848484848484859D7
:10059000484B4B595959704B6D487048184B184887
:1005A00048827F4B48484B487F0000204FF0000BAB
:1005B0004FF0040A38E001222A38C0B202FA00F0F3
:1005C00010EA0E0F49D110F0625C2FD110EA020B35
:1005D00043D06046013C5444B4FBFAF40AFB04F4F3
:1005E000002D61D0A3EB050CA444B4453FF66BAFDE
:1005F000002868D1042B47D159F8043B2360042319
:1006000004342AE0019A013A01924FF0000B24E0F1
:1006100011F8010C6C2834D1002011F8023C8346FB
:100620006C2BC5D14FF0080A5346D3E709F10709EF
:1006300029F00709073424F00704F9E802AB35B1C3
:1006400006982044B0423FF63EAFC4E900AB4FF0FD
:10065000000B08344FF0080A534611F8010F002828
:1006600078D0BBF1000F7FF470AF2528F5D14FF0A3
:10067000010B019B013301934FF0040AECE758464C
:1006800094E700208346A5E7082B02D06FF0150001
:100690001BE709F1070929F00709F9E80223C4E972
:1006A000002308230834D8E768B9042B02D109F1E4
:1006B0000409A4E7082BE9D109F1070929F0070982
:1006C00009F10809EDE7059A013A059259F8042B5A
:1006D000009210E7039A900720D54FF0010CA4EB8D
:1006E000050E4FEA9E00BEF5007FCFD20F2FCDD86A
:1006F000F5B107F140020DEB020E019AC0B20EF8FF
:10070000200C0EF8102CBCF1000F3FF41AAF60F073
:100710007F000EF8200C08F101080137C5F108022E
:100720004FF6DA7E0434069297E74FF0000CDAE7D2
:10073000BCF1000F01D00136EFE702980236002825
:10074000EBD10098CDE9063104F078FFDDE9063100
:100750000644E2E7631BB3F5806F97D245B9A6F173
:100760000804E018B1E600BF6C620008AC70000835
:10077000029A9B0828602B709DF81030C2B1EB7074
:1007800085F80280B8F1000F05D0002208A8C5F155
:10079000010C97420ED14FF0000AC5F101030DF193
:1007A000200901930DF1300B574512D1601B8CE6E7
:1007B0006B70E5E710F8013B190608D504EB0C0E49
:1007C000B64503F07F033FF67EAE04F8013B0132ED
:1007D000DFE7B8F1000F03D099F90020002A17DBFA
:1007E000029BD3B11AF80B2004F8012B0022019BC5
:1007F00098182044B0423FF666AE99F80000009980
:1008000004F8010B2046039204F01FFF039A1444DE
:100810000AF1010A09F10109C6E799F8002055F823
:1008200022300093029B009845F8223004F006FF26
:10083000421CDCE76FF00D0047E600BF2DE9F04FEA
:1008400095B000AFD7F878B0BB61CBF3C0030446D6
:100850007A623B61396251B903784678807800EB5F
:10086000830020443B6A9E421AD8031B3B6294F8E3
:1008700002A0E37856467B61BAF1000F02D01BF06C
:10088000010F17D17B695BBB7B6A1BB12046BA693C
:10089000396A98473D6A28465437BD46BDE8F08F0F
:1008A000451C284604F0CAFE3B6A01300133284447
:1008B0003B62D7E7636894F80080FB617B6A4FEA8C
:1008C0008802FA6004EB8808002B40F00281C146E0
:1008D00000263D6A0AEB08034B454ED1D04413E095
:1008E0001BF0020FD0D094F800804FEA8803FB6021
:1008F000636804EB8808FB617B6A002B78D13D6A52
:10090000BAF1000F4ED156461BF0050F0CBF022363
:1009100001237B627B6908EB430A0BF002033B6215
:10092000D045B8D018F8021B18F8013C54F82390B1
:10093000AC4B994502D3AC4B994539D33B69002B5D
:1009400043D0F86904F075FA00283ED0E9468AB031
:100950006A46A64B5361FB69C2E906314FF4007346
:100960001384A34B42F8103F00234FF41251A148C7
:1009700001F078FA023DCD46D2E719F8012B7B62EF
:1009800054F8220004F05AFEFA6F7B6A01303AB143
:10099000D7F8802096423EBFFA6F22F81600013643
:1009A000054499E71BF004061CBF7E6AD044ABE700
:1009B0003B6923B1F86904F03CFA0028C6D11BF06A
:1009C000010F05D17B6AED1AAAE73B6A002BA7D07D
:1009D000484604F033FEFB6F43B1D7F880309E42A7
:1009E0003FBFFA6F431C22F816300136054497E7E3
:1009F000BAF1000F72D01BF0040672D0D146002667
:100A000007F140005246414604F01FFE7B69D04486
:100A10005B00BB607B6908EB43037B610BF0020367
:100A20007B607B6998455ED123781BF0020FFB61E8
:100A3000637818BF002106EB030208BF4FEA590193
:100A40001BF0010FD2B240F09C801BF0040F14BFCA
:100A50004846002094F802B094F803803B6162702D
:100A6000A070E1702046BA69F9687B6A9847051E54
:100A7000FFF611AFFB6984F8038023703B69494698
:100A80006370BA697B6A84F802B007F14000984746
:100A9000B0F10008C0F2A2803B6ABA69A3EB0A0178
:100AA000FB687869C91ABB68C91A7B6A984700282D
:100AB000C0F296804FF0000BA84408EB000507F148
:100AC000300AB3455FD30021BA6908467B6A98476C
:100AD000E1E64FF0000907F1300093E75646D146B2
:100AE00094E7B14692E718F8021B3E4A18F8015CF9
:100AF00054F82530934202D33B4A93421BD33B69BF
:100B000023B1F86904F095F900288AD17B68EBB924
:100B100009F10103DBB209F1280207F128002833AB
:100B2000024409F10209034402F8101C5FFA89F932
:100B300003F8105C75E73B692BB1F86904F079F9AB
:100B400000287FF46EAF1BF0010F09D006F12802D8
:100B500007F12801731C561806F8205CDEB260E726
:100B60001BF0040F3FF45DAF09F1280207F12801E3
:100B700009F1010302EB010909F8105C5FFA83F93E
:100B80004FE7002066E71BF80A3054F8239087F8F7
:100B90002F30FB6FFBB133F81B800121BA697B6AF0
:100BA00007F12F00984700281ADB0544B8F1000F21
:100BB00006D1484604F042FD00F101081FFA88F80A
:100BC00041464846BA697B6A9847002808DB0544D5
:100BD0000BF1010B75E7D7F87C80DEE745465AE656
:100BE000054658E66C620008AC700008996700087A
:100BF0000400000178650008014B1860704700BFD1
:100C00000000002030B5002587B0CDE9030104467F
:100C1000009503A90548059500F00AF8DDE90430C0
:100C20009842B8BF255407B030BD00BF814E0008C0
:100C30002DE9F04F824616461C4600259FB00391D1
:100C4000307810B9284600F089BD731C252806931A
:100C500006D00399D0470028C0F2808501352BE2E9
:100C60001822002110A804F0FBFC7378252B7DD0FE
:100C7000002398469E469C461F46701C014610F86D
:100C8000012B2B2A00F0A18000F29880202A00F08E
:100C90009F80232A00F09F802BB19DF8483043F0BD
:100CA00040038DF84830B8F1000F05D09DF848306A
:100CB00043F020038DF84830BEF1000F05D09DF8B9
:100CC000483043F010038DF84830BCF1000F05D0D8
:100CD0009DF8483043F008038DF848302FB19DF857
:100CE000483043F004038DF848309DF8483003F055
:100CF0004400442803D16FF386138DF848309DF8E3
:100D000048302A2A43F080038DF848307FD19DF87F
:100D100049204B1C42F001028DF849201A782E2AF6
:100D20000CBF012100219DF8492061F341028DF89B
:100D3000492078D15A782A2A6ED000224FF00A0C26
:100D40000133194611F8010BA0F13007092F40F2C9
:100D5000AF809DF848101492C1F3400040EAD27071
:100D60000A4660F341028DF848205CE0B21C06920E
:100D70008DF84B309DF84930DF0740F1548154F82D
:100D8000042B002A049208DA9DF8482042F004025D
:100D90008DF84820049A52420492580740F14B8142
:100DA00054F8047B002F80F24A819DF849306FF39C
:100DB00041038DF849304FF0FF3740E12D2A0DD027
:100DC000302A7FF469AF012358E74FF0010C55E753
:100DD0004FF0010E52E74FF001084FE701274DE7B2
:100DE00003460EFB0272303A184610F8017BA7F159
:100DF000300CBCF1090FF3D999428FD09DF84810FF
:100E00001392D20F62F341018DF8481086E70B462A
:100E100000224FF00A0EE7E79DF84920023342F026
:100E200004028DF849201A786C2A61D045D8682AC6
:100E30004BD06A2A65D04C2A6BD013F8012B782A44
:100E400006938DF84B2000F2AD806D2A6ED8692A8A
:100E500000F2A880572A00F28880412A04D0A2F12B
:100E60004503022B00F29E8004219DF84A3002F0D7
:100E7000DF02A2F1410861F30203D8F100029DF8FC
:100E8000491042EB080262F3C7110A068DF84A3096
:100E90008DF84910CBB200F1C48003F07802182A13
:100EA00040F0AE806FF3C6038DF8493000239DE01B
:100EB0000CFB02020B46303A43E7742A25D07A2A0B
:100EC000BBD106219DF849200CE05A78682A9DF88C
:100ED000492006D1012161F3C6028DF84920023371
:100EE000ABE7022161F3C6028DF849200133A4E784
:100EF0005A786C2A9DF8492001D10421EBE703219F
:100F0000F0E705219DF84920ECE707219DF84920ED
:100F1000E8E7BDF8482022F4F04222F0020242F451
:100F2000804242F00202ADF84820DFE76E3AD3B2C9
:100F300001229A4040F282431A429DF8493038D14A
:100F400012F0240F60D1D1072CD503219DF84A203F
:100F500003F07803A3F1400C61F30202DCF100031B
:100F60008DF84A2043EB0C0340E00120A2F1580128
:100F7000C9B200FA01F111F4624F7FF475AF40F687
:100F8000010319429DF8493019D111F4043F09D0E9
:100F90009DF84A2060F3020203F07803402B8DF89D
:100FA0004A2083D19DF8483043F001038DF8483042
:100FB0007CE702219DF84A2061F30202ECE702205F
:100FC0009DF84A1003F0780360F30201402B8DF87E
:100FD0004A1002BF9DF8481041F001018DF84810F9
:100FE000632A7FF463AF003B18BF01239DF84820BC
:100FF000C2F340010B4363F341028DF84820B9E688
:1010000013F0380FCED151E703219DF84A2013F099
:10101000780F61F3020214BF012300238DF84A20E8
:10102000E4E70123E2E79DF94820002AACBF4FF036
:10103000FF32139AB0E699077FF5BDAE149F0023E7
:10104000CDE913339DF84A309DF8491003F00702AB
:10105000042A07D18A0705D49DF94920002AACBF8C
:1010600006270D2703F00703012BC1F3C30133D17A
:10107000CB1E042B04D8DFE803F0214646212100D3
:10108000236801294FEAE372CDE910321CD19DF9A2
:101090004030DA17CDE9103204349DF84830079318
:1010A0009B0750D032465046069B039903F094FFAD
:1010B0000028C0F253830544069EC1E554F8043B62
:1010C000DA17CDE91032E8E70229E5D11AB243F385
:1010D000C033CDE91023DFE7022B24D1CB1E042B34
:1010E00004D8DFE803F018101018180001294FF099
:1010F000000254F8043B14D00229CDE91032CCD1BF
:101100009BB21093C9E7073424F00704F4E80223E4
:10111000CDE91023C1E754F8043B10930023119349
:10112000BBE7DBB2CDE7042B08D1073424F007047A
:10113000D4E900230834CDE91023AEE7032BACD16A
:1011400054F8043BDDE79DF84BB0BBF1780FB3D802
:10115000BBF1570F49D8BBF1250F00F09180BBF1CF
:10116000240FA9D9BBF1410F03D0ABF14502022AEC
:10117000A2D8DDE91012002AC0F23681079B1807B9
:1011800000F13581C3F300194FEA4919C2F30A503F
:10119000C2F31302002840F02D8151EA020614BF69
:1011A00001260026D20242EA5152C902BBF1460F83
:1011B00040EA010E42EAE07C08BF4FF0660B5EEAAF
:1011C0000C0CCDE90C1200F09881002E40F0448107
:1011D0000D9AA0F2FE3842F000420D920020DDE9A7
:1011E0000C1206464FF0050C50E1ABF15802202AD4
:1011F0003FF662AF01A050F822F000BF871300084D
:10120000B9100008B9100008B9100008B91000089A
:10121000B9100008B9100008B9100008B91000088A
:1012200073110008B91000080B1300081F13000801
:10123000731100087311000873110008B910000839
:101240001F130008B9100008B9100008B9100008F1
:10125000B9100008C1130008871300088D13000897
:10126000B9100008B910000887120008B91000086A
:1012700087130008B9100008B91000088713000888
:1012800058460399E6E4002F109E3ADB3946304673
:1012900004F0F2F93718002E3FF40EAF4FF00009BA
:1012A0009DF84A3013F01002059200F04C82023093
:1012B00013F04003DDF84C80089318BF149B4044A2
:1012C00018BFC018049BCDF81C80002B40F3568239
:1012D0009DF848201B1A04935307C2F3800B00F1BA
:1012E0004D82500640F13D82B9F1000F07D04846CB
:1012F0000399D0470028C0F23182D9460135302207
:1013000030E2304604F09AF9C4E7109B4FF0000930
:1013100001208DF85C300DF15D0717AEC0E7079B2B
:101320001E0754BFC3F300194FF02B09DDE910234A
:1013300058BF4FEA4919002B06DA4FF02D095242E7
:1013400063EB4303CDE91023DDE910010DF17503D3
:10135000009312AA17AB03F0F9FD0646002F0CDB31
:101360009DF848200DF175039B1B6FF386129F4279
:101370008DF8482001D9FB1A1393002E3FF49CAE40
:101380000DF1750756E04FF00009DDE710980028D1
:1013900000F0D4810DF175030093002117AB12AA60
:1013A00003F0D4FDBDF84A30064603F0EF0343F4E2
:1013B000F04343F010034FF00009ADF84A30CDE799
:1013C000109B07293FF678AEDFE801F00C04060C0D
:1013D00008080C0C1D706FE61D806DE6EA17C3E966
:1013E000005269E61D6067E64FF02D09CEE64FF02A
:1013F0002B09CBE640F2FF76B0422AD10A43ABF18B
:1014000041031ED11A2B35BF492369234E216E217A
:1014100034BF462266228DF85C309DF848308DF846
:101420005D106FF386138DF85E208DF848300DF156
:101430005F0717AEB81BB9F1000F3FF431AF0130B1
:101440002EE7192B8BBF6E234E23612141211A46B3
:10145000E1E70026A6E6013849185241002AFADAE7
:10146000CDE90C12B4E6490841EAC2715208B2F162
:10147000333F404608F10108F5D200F1020801208F
:101480000CFB02FEA1FB0C12013E724418F1020F8C
:10149000E9DB08B1CDE90C12DDE90C21B8F1000F50
:1014A0002EDCC8F1040008F11C08A0F1200CC24099
:1014B00021FA00F301FA08F80BF0DF0042EA080213
:1014C00021FA0CFC472842EA0C02089338D1F31C9D
:1014D00001DBB7422ADAABF10203002F5FFA83FB8C
:1014E0007DDD9DF84800013F800678D43B1E18BF83
:1014F0000123059307F101082CE04FF000086DE689
:10150000023241F100010CA808F1FF380136CDE9A3
:101510000C2103F0ECFCDDE90C2192184941002973
:1015200008F1FF38F9DACDE90C21B5E79DF848302C
:10153000BF1B990651D43B1E18BF0123059304E03D
:101540000023BBF1660F0593D4D117EB06084FF0CB
:10155000660B46D4B8F1100FA8BF4FF0100810204A
:101560004FF000610B900020CDE90E01DDE90E0384
:10157000B8F1000F38D10899121841EB0301B1F10D
:10158000805F3FD2CDE90C21079BBBF1660F03F0D2
:10159000200240F0B280002E3FDC30218DF85C103C
:1015A000002A63D1002F40F3A8812E228DF85D2000
:1015B00086B17242BA42A8BF3A46002A1392A7EBFC
:1015C0000207D4BF002201229DF84A1062F34511A0
:1015D0008DF84A100DF15E0837E00023AEE70023D6
:1015E00087E74FF00008BAE7400840EAC3705B089D
:1015F000CDE90E030EA8099208F1FF3803F077FC3D
:10160000099AB3E7520842EAC1720CA84908CDE929
:101610000C21013603F06BFCB6E70DF15C080B9969
:10162000002909DD0BA90CA8079203F078FC013E04
:10163000079A08F8010BF2D113969AB9002F40F3DC
:101640005A812E2108F8011B0026002F17DD0B9A66
:10165000002A14DD0BA90CA803F061FC013F08F877
:10166000010BF2E72E2208F8012BEDE72E228DF870
:101670005D20002EAED0002F9BDC0DF15E08059B97
:10168000002B4ED1149747460BF0DF02452A23D199
:10169000002EBABF76422D232B23632EC8BF6421B0
:1016A0007B70C4BFB6FBF1F301FB13664FF00A0178
:1016B000C8BF03F13000B6FBF1F3D2BFBA1CFA1C6D
:1016C000B87087F800B0174603F1300001FB1363D0
:1016D000303307F8020B5370139B002B2CDC149B48
:1016E000002BD4BF002301239DF84A2063F3861208
:1016F00000238DF84A203B709BE60BA90CA80792AB
:1017000003F00DFC079A30288DF85C0018BF06F135
:10171000FF3612B9002F40F3F0802E228DF85D20A5
:1017200058E7474617F8012C08F1FF38302AF8D05F
:101730002E2A08BF4746A7E70123D5E7704F814609
:101740007E1F0520ACE51A0748BF0130B0E5104602
:1017500009920399D0470028099A05DA1FB0BDE81D
:10176000F08F2022DDF810B0594600290BF1FF3B25
:10177000EDDC049BCDF810B02B445D1AB9F1000FDD
:1017800005D048460399D0470028E7DB0135089B80
:10179000002B75D09DF94930002B28DBB3469BF810
:1017A0000000D946A0F13003092B0BF1010B3FD902
:1017B0009DF84A30AE1B99064E4407D44246002A93
:1017C00008F1FF3839DC079B33449E1A99F8000072
:1017D0002E280AD10399D0470028BFDBB8F1000FAB
:1017E00006F101062FDC09F101094D4635E0B1464D
:1017F00099F80000C846702809F1010913D1AE1B01
:10180000149D46443544AB1B002B31DC3B4642461D
:101810005046039903F0E0FB00289FDB3044049E10
:101820000546064462E00399D0470028E0DA95E7D0
:101830000399D0470028B2DA90E730200399D047C7
:101840000028BBDA8AE730200399D04708F1FF3837
:10185000C2E70399D047002880DB2878A846A0F18A
:101860003003092B05F10105F3D9A6EB0906C7E7FB
:1018700030200399D0470028FFF670AF0136C2E749
:101880009DF84A30DA0601D41B0706D530200399AB
:10189000D0470028FFF662AF0135059B3BB10399A5
:1018A0009DF84B00D0470028FFF658AF0135A844FB
:1018B00006E030200399D0470028FFF64FAF0135EE
:1018C000A8EB0503002BF4DC3B4632465046039957
:1018D00003F082FB0028FFF641AF28449FE7202059
:1018E0000399D0470028FFF639AF0135731B002B51
:1018F000F5DCFFF7E1BB1646C1E60DF15D08BEE67B
:1019000052680008024B034A00201A60704700BF6B
:101910002800002000127A000020094B82B05A698A
:1019200042F001025A615B69064A03F00103019328
:10193000019B536843F00203536002B0704700BF3D
:1019400000100240002004E02DE9F047044607465D
:101950004FF00109DFF8508014B93846BDE8F08730
:1019600094FAA4F5B5FA85F509FA05F32E0108EB0A
:1019700005156FEA030A24EA03042B7B002BEBD046
:1019800058F806301B694BB9464473680422284650
:10199000196807EA0A0700F051FADDE72846984778
:1019A0000028D9D1F0E700BFB865000830B50022A3
:1019B00089B00F490F4804F02CFC002200230024BA
:1019C000CDE906230E230C4DCDE903344FF44072CC
:1019D0002846CDE90144094B0949009402F016FB61
:1019E0000849284604F009FB204609B030BD00BF75
:1019F000091A000838050020C0000020E91C000872
:101A0000E80C002053680008014802F02DBC00BF1C
:101A1000B00000202DE9F04780461E480F4603F035
:101A20005BFD064678B300252846BDE8F087237B9A
:101A300073B12368DB680BB12046984723681B69A4
:101A4000CBB9636804222046196800F0F7F9013623
:101A500010344C45EBD3B8F1000FE5D0002DE2D0A7
:101A60002846FFF771FF0546002FF7D000216420BC
:101A700002F026FFF2E7204698470028E1D00AFA54
:101A800006F31D43E3E705464FF0010A024CDFF879
:101A90000C90DEE790060020B8650008C8650008D5
:101AA000014B53F820007047DC65000808B5034679
:101AB00008462BB1044A136000F072FC002008BDF8
:101AC0006FF01500FBE700BF0400002010B5044CC8
:101AD000237813B9034802F0C7FB0123237010BD1C
:101AE000BA080020B000002010B50446084803F0F2
:101AF000F3FC5CB1BFF35B8F064B53E8001F013969
:101B000043E80012002AF8D1BFF35B8F10BD00BF7D
:101B1000880600208C0600200020BFF35B8F014662
:101B2000044B53E8000F43E80012002AF9D1BFF339
:101B30005B8F70478806002070B5FFF7EDFF054604
:101B4000074C084EB44200D370BD63685B792BB17B
:101B500023685B6813B12946204698471034F1E7A3
:101B6000B8650008C865000810B5044C0449204653
:101B700003F045FB034B1C6010BD00BF600000205C
:101B8000C86500088006002008B50023074A4FF406
:101B90007A711370064A07481360074A1360FFF70B
:101BA00085FFBDE80840FFF7DFBF00BFBB0800208E
:101BB00088060020F35400088C060020014600220D
:101BC0000023014803F03CBB60000020014803F003
:101BD000D5BB00BF60000020024B0146186803F02F
:101BE0001FBC00BF80060020014803F055BC00BFA9
:101BF0006000002070B5254B1878002844D0FFF70E
:101C0000E5FF054690B1BFF35B8F214B53E8001F02
:101C1000013943E80012002AF8D1BFF35B8F1D4C55
:101C20001D4EB44226D32846FFF7D6FF1B4B1C4C53
:101C30001B68002B12DD04F0EAFA0A220023FEF7EB
:101C400077FAD4E90032C01A40F2E93361EB0201BD
:101C5000984271F1000101D3FFF76EFFD4E9003221
:101C600013F57A7342F10002C4E90032BDE8704016
:101C7000FFF7BABF63685B7923B123682946204622
:101C80001B6898471034CCE770BD00BFBA0800202D
:101C90008C060020B8650008C8650008880600208A
:101CA0003005002070B50D4D297861B90120FFF78E
:101CB000B1FE0B4C0B4EB44206D3FFF79BFF00283E
:101CC000FBD101232B7070BD63685B791BB1236866
:101CD00020469B6898471034EDE700BFBB08002002
:101CE000B8650008C865000800212DE9F0470846DE
:101CF000FFF790FE044648B34FF4FA784FF000091E
:101D000002F0F6FD1A4B186030B11A4B1B68092B14
:101D100002DD194802F0A8FA0025184FDFF858A094
:101D200044B12046FFF710FE044618B94FF0FF38C3
:101D30004FF0FF39FFF75EFF064628B9B5B94246B6
:101D40004B46504602F0B4FA3546E9E74FF0FF380B
:101D50004FF0FF39D4E72B689B691BB1002228465E
:101D6000114698471035BD42F5D3E8E7044DFAE730
:101D7000840600208C060020B0000020C865000802
:101D8000B865000813B5184803F0A6FB174B1B787D
:101D90007BB14FF01003EFF3118483F31288BFF38C
:101DA0006F8FFFF727FF84F31188BFF36F8F02B0A7
:101DB00010BD0F4B1B68002BF9D050B90022002337
:101DC0000C48CDE9002342F21072002302F0C2FF5A
:101DD000EDE70928EBD1074804F027FA064802B0DE
:101DE000BDE8104002F040BA8C060020BB0800207D
:101DF0008406002038050020B000002010B5064BF6
:101E000004461B6898472146A060044803F096FAF0
:101E1000BDE81040FFF7B6BF0400002060000020BE
:101E2000044A054B9B1AB1EBD30F34BF52F8310073
:101E30000020704778650008B8650008084B10B4AA
:101E4000C31A44681B110133237143689A7101223C
:101E50004368196043685A7110BCFFF737BE00BF72
:101E6000B86500082DE9F04F8FB0C1F34A2804AFE0
:101E70000D469146B8607B600C0DB8F1000F63D041
:101E800000264FF0040B4FF00A0A07F11403C7F8BD
:101E90000C80C7E907667E620193CDF808B0CDF8E3
:101EA00000A007F11C0332464846F968FEF7C6FC5D
:101EB000B0F5006F03461CD36C468AB0D9F8041005
:101EC00004AB26481A46C3E9050140F2FF71D96107
:101ED0004FF400711984224B42F8103F4FF4125115
:101EE00033462048FFF7BEFFA5462C37BD46BDE868
:101EF000F08FC0F30A0804F11700184420F007001F
:101F000080083B60FFF75AFE68F35325044690B102
:101F10003B6800F11001C7E9083607F11403F961C5
:101F2000CDE900A3CDF808B048460F4AF96807F19B
:101F30001C03FEF783FC68F353252A4620467B6882
:101F4000B96803F007FBD0E704F1170020F00700A1
:101F50008008FFF733FE0446EDE700BF686800081D
:101F600004000001A0650008295500082DE9F04F84
:101F700087B00446DDE9105ADDE912690F46934641
:101F80009846A6B31021334652460020CDF8009063
:101F9000CDF81490FEF780FA014605F117000844C9
:101FA000144B04F007040BF0070BE40020F00700CB
:101FB00003EA412344EA8B1480081C430391FFF792
:101FC000FDFD44EA0554054640B13EB13346524654
:101FD0000399CDF800901030FEF75EFA4346224692
:101FE0003946284607B0BDE8F04F03F0B3BA314692
:101FF000D3E700BF00FE0F000EB403B503AB53F8E8
:10200000042B01460448019303F0CAFA02B05DF8BC
:1020100004EB03B0704700BFC7550008CA0605D4DB
:102020008B064CBF02490349FFF7E6BF704700BF6C
:10203000A8680008A76800082DE9F04F89B09B4602
:10204000DDE915769DF8483004460493DDE91393E5
:102050000593049B0D460692002B00F0878006F046
:102060000803079303F05EFA06F0020A024600280E
:102070004BD020468549FFF7BFFF8046BAF1000FDD
:1020800008D016F0440F42D12A4620468049FFF777
:10209000B3FF804406F001035BB17E4B049A2046F7
:1020A00053F822207C4B7D49002A08BF1A46FFF7CF
:1020B000A3FF06F00803002B55D0794B049A204665
:1020C00053F822207749FFF797FF0546069B2BB16F
:1020D0001A4620467449FFF78FFF0544BBF1000FF5
:1020E00005D05A4620467149FFF786FF054445440E
:1020F000B9F1000F49D1002F4FD1F30700F1C08093
:1021000031462046FFF78AFFB4E08046B6E7684BC9
:1021100018680028BDD0674B4FF47A7E1B684FF4D7
:102120006162B5FBF3F5B5FBF0F300FB13550EFB55
:1021300005F5B3FBF2FAB5FBF0FC3C2102FB1A32C9
:1021400000FB1C55B2FBF1F30EFB05F5B5FBF0F5FA
:1021500001FB132220460092CDE901C552465649A3
:10216000FFF74AFF95E706F00805AFE7BBF1010F5F
:1021700006D1B9F1000F64D1002F7BD000250CE00F
:10218000B9F1000FF8D04D485CE04D484B4622466F
:102190004C4902F01DFE002F68D0DFF82C91DFF8CB
:1021A0002CA1102F31462046B8464FF0000B28BF17
:1021B0004FF01008FFF732FF5D4545DC059B5146A7
:1021C00020461A78FFF718FF4FF0010B1BF0070F9E
:1021D00003D149462046FFF70FFFD8453BD9059B61
:1021E0005146204613F80B20FFF706FF0BF1010BB9
:1021F000BBF1100FEAD14FF0000B20463449FFF736
:10220000FBFE5A46059B20469A5CA2F120015F29FD
:1022100028BF2E222F49FFF7EFFE0BF1010BBBF178
:10222000100F1DD01BF0070F03D149462046FFF7C2
:10223000E3FED8455A46E5D849462046FFF7DCFE7E
:10224000EBE71F48049DA1E749462046FFF7D4FE6F
:102250000BF1010BB0E720461F49FFF7CDFEC5E7A4
:10226000059BB7EB0807434405939AD1049B002BC9
:102270007FF443AF204609B0BDE8F04F03F097B9B3
:102280002046054A0549FFF7B7FE39E7AF68000861
:10229000B3680008EC650008AA680008D868000860
:1022A00000660008DB680008E1680008E5680008CF
:1022B0009806002094060020BC680008FD55000820
:1022C000C7550008A1550008F2680008EA68000830
:1022D000F4680008F6680008F06800082DE9F0418D
:1022E0000F884B6805460C4690468E6886B0C7F34B
:1022F00082175BB1134A9B1A43F3CF0100291FDBFE
:102300002078C0F3C200FFF78BFD0346214651F849
:10231000102B6088C2F34A22002A01EB020408BF96
:102320000021C0F30B10CDE90308CDE90114002210
:10233000314628460097FFF77FFE06B0BDE8F081E2
:102340000023E3E77865000842F20F7373B58B4210
:1023500028BF0B4605680446052168460D4A02F071
:10236000AFFD0646636828460B225B680A4903F006
:102370000AF963683246694628465B6803F003F948
:1023800063681B2228465B68044903F0FCF802B02E
:1023900070BD00BFAC6D000815690008F968000841
:1023A00000210123064A904206D8064A01B90123BA
:1023B0001360054B18607047012140085B00F2E78D
:1023C00040420F0094060020980600200122014B95
:1023D0001A707047BC080020014B0020196070473C
:1023E000B00600200122024B02481A7003F0DFB849
:1023F000BD080020306600080148FFF7A5BF00BFF8
:102400003066000810B5064B0C461868FFF748FB0D
:102410002146BDE8104003460F220248184700BF7E
:10242000B00600203066000810B9074B18707047DE
:10243000064B1B781BB141F2883001F01BBC3220E7
:10244000002102F03DBA00BFBC080020BD080020FA
:102450002DE9F84380460E460424DFF870901C4FA7
:1024600099F8005095B901F099FB2846324641464B
:1024700001F01AFB054601F09BFBE5B101233B701F
:1024800099F8003073B93046BDE8F88332464146CA
:10249000002001F009FB0546EFE72046651EFFF727
:1024A000C3FF2C46002001F06FFB0028EBD03B78E7
:1024B000002BF2D1E7E73B78002BE4D0013C20462B
:1024C000FFF7B2FF3B78002BCAD1DCE7BD08002044
:1024D000BC080020014910220A60704710ED00E09E
:1024E00072B6404080F31188BFF36F8FBFF34F8FF8
:1024F00030BF62B6BFF36F8F704700BF2DE9F04762
:1025000081460C4600AF00294BD006C96E468AB002
:10251000A3686D464FF0050AA8462548C5E907237C
:10252000C5E9050148F810AF002342464FF4215198
:102530002048FFF797FCD4E90312B5466369AD461E
:102540001D48C5E90723C5E90501C5F810A000230A
:1025500042464FF421511748FFF784FCB54688B036
:10256000E3696D464FF0030AA846144AC5E90523FE
:1025700048F810AF002342464FF4C2510D48FFF710
:1025800071FCB546A369AD460D4AC5F810A0C5E972
:102590000523002342464FF4C2510648FFF762FC70
:1025A000B5462146484601F095FBBD46BDE8F0879B
:1025B00051690008B065000880690008AF6900082B
:1025C000BE69000840B2002807DB01234109034A25
:1025D00000F01F00834042F82130704700E100E026
:1025E00040B2002801F10101ACBF00F16040064B90
:1025F0004FEA0111C9B2ABBF00F5614000F00F0016
:1026000080F800131954704714ED00E030BFFFF755
:10261000FDBF00BF08B5094B094A23F0604323F012
:102620007F039360BFF34F8FBFF36F8F01F00EFCFA
:1026300002F0C4F900F064FB01F056FC0000000851
:1026400000ED00E0094A0A49936809689866D9666E
:1026500008494B6843F080534B60002383F3118893
:10266000BFF36F8F9368D86E704700BF8408002057
:102670005467000800ED00E00F498A684FF0300011
:102680001044EFF3098C80E8F01F102080F31288CB
:10269000BFF36F8F094F4FF000664A698A603E6052
:1026A000906E0023936680F3118802F1300090E869
:1026B000F01F8CF3098870478408002004ED00E0C7
:1026C0001EF0040F0CBFEFF30880EFF3098081695F
:1026D00011F8021C0229FFD001B502F09DFF01BDD7
:1026E00042F8203C009B0B4942F81C3C019B21F026
:1026F000010142F8183C029B42F8081C42F8143CC5
:102700004FF0807342F8043C0023203A0265836650
:10271000704700BFDB4E0008074B9860104681F3FE
:102720000988002163B681F31188BFF36F8F0022FF
:10273000002302F0D2FB00BF8408002001B5EFF3B4
:102740000580A0F110004FEAC0000449014409C906
:102750009847BDE801400249084700009863000817
:1027600065270008044B99685869884203D00349DB
:102770004FF080520A6070478408002004ED00E0AA
:102780002DE9F04186B006460D4600AF0224394BD4
:102790004FF482517B6138483C6107F1100202F02E
:1027A0004AFF364B9B6AD90661D5354B32484FF408
:1027B0008251C7E9044307F1100202F03CFF1120E7
:1027C0002E4B9B6A1A070BD52E4B2B487B6102239D
:1027D0004FF482513B6107F1100202F02CFF1220EE
:1027E000264CA36A9B0723D5E846274B22487B61EA
:1027F000022307F110023B614FF4825102F01BFFEC
:10280000636BA26A100612D588B06A461F491A483F
:10281000C2E9051303234FF4C25142F8103F02F0FE
:102820000AFFC5461EB1A36A23F08003A3621320EA
:10283000124B9B6AD9070BD5154B0F487B610223BE
:102840004FF482513B6107F1100202F0F4FE1420B4
:102850000A4B18379A6AD20658BF9A6A9A6A42F0A7
:10286000FF029A6200232B70BD46BDE8F081102064
:10287000A6E700BFEC690008B065000800ED00E0C5
:10288000026A0008356A0008486A0008606A0008A1
:10289000766A00082DE9F04186B006460D4600AF85
:1028A00002243F4B4FF482517B613E483C6107F16B
:1028B000100202F0C0FE3C4B9B6AD9046DD53B4B25
:1028C00038484FF48251C7E9044307F1100202F07F
:1028D000B2FE1720344B9B6A1A050BD5344B314896
:1028E0007B6102234FF482513B6107F1100202F039
:1028F000A2FE18202C4CA36A9B0523D5E8462D4B3D
:102900004FF482517B61022307F110023B6125489D
:1029100002F091FEA36BA26A110412D588B06A4638
:1029200025492048C2E9051303234FF4C25142F858
:10293000103F02F080FEC5461EB1A36A23F4004397
:10294000A3621920184B9B6A5A050BD51B4B1548DF
:102950007B6102234FF482513B6107F1100202F0C8
:102960006AFE1A20104B9B6ADB050BD5144B0D48F1
:102970007B6102234FF482513B6107F1100202F0A8
:102980005AFE1B20084A1837936A43F47F43936228
:1029900000232B70BD46BDE8F08116209AE700BFEA
:1029A000956A0008B065000800ED00E0AB6A000819
:1029B000356A0008BC6A0008D56A0008EA6A00089F
:1029C000056B000810B586B00224364B04AA4FF4FC
:1029D000825135480593049402F02DFE334B9B6AD7
:1029E0009A015DD5324B30484FF4825104AACDE9AB
:1029F000044302F020FE1E202C4B9B6ADB010AD50B
:102A00002C4B2948059302234FF4825104AA0493C6
:102A100002F011FE1F20254B9B6A1C030AD5264B92
:102A20002148059302234FF4825104AA049302F033
:102A300002FE21201D4B9B6A59030AD51F4B1A48E1
:102A4000059302234FF4825104AA049302F0F3FD8C
:102A50002220164B9B6A9A030AD5194B12480593FC
:102A600002234FF4825104AA049302F0E4FD2320D0
:102A70000E4B9B6ADB030AD5124B0B4805930223CE
:102A80004FF4825104AA049302F0D5FD2420074A92
:102A9000936A6FEA03436FEA1343936206B010BD73
:102AA0001D20A9E71D6B0008B065000800ED00E0DF
:102AB000356B0008486B0008626B0008806B0008EB
:102AC000A56B0008BF6B00082DE9F0438BB0764B77
:102AD0000546D3F80480002600AFC8F3080486F347
:102AE0001188BFF36F8F02F07F43B3F17F4F0ED198
:102AF00002F00C03082B19D16C4B4FF48251FB618F
:102B000002236B48BB6107F1180202F094FD002616
:102B100035460023FB71E31E092B00F2A580DFE898
:102B200003F00A989B94A3A3A3A3A39E10074CBFF2
:102B30000D460126EDE7E9464FF002085D4B07F12F
:102B40001802FB614FF482515948C7F8188002F00F
:102B500072FD0023544CFB71E36A9A070BD5564B68
:102B6000C7E906834FF48251514807F1180202F079
:102B700062FD002440E0E36A002B01DA4F4BEFE7EF
:102B8000E36A5B00F5D54E4B07F11802C7E90683EF
:102B90004FF48251464802F04EFD6369AA6943F43E
:102BA00080736361BFF34F8FBFF36F8F636932F838
:102BB000022C23F480736361BFF34F8FBFF36F8FD9
:102BC0004DF602739A4207D0A36ADBB283B30120A9
:102BD000F91DFFF7D5FD3AE088B02B686A46394900
:102BE0003348C2E9051303234FF4C25142F8103FA2
:102BF00002F021FDCD462C68FB79ABB92022294695
:102C000007F1080002F021FD7B6A002E47D0C3F3D4
:102C1000080222B96FEA53236FEA43237B622046FE
:102C200007F10801FFF76AFC2C37BD46BDE8F083C9
:102C3000A36A13F47F4F04D00120F91DFFF72AFE89
:102C400005E0A36AB3F5803F93D3FFF7BBFE0446CC
:102C5000D2E70020F91DBCE70020F91DEEE71A4B72
:102C6000FB610223BB617DE7184A18F4F87FE84650
:102C70008AB0174B18BF13466A461649103CC2E982
:102C800005134FF400731384134BD4614FF41151A7
:102C9000074842F8103F02F0CEFCC54669E723F42E
:102CA000FF7323F00103B9E700ED00E0186C0008A2
:102CB000B0650008436C00085A6C00087B6C000883
:102CC000896C0008A86C0008C46C0008FF6B000841
:102CD000EA6B0008E86C000804000001024A53692E
:102CE00043F010035361704700ED00E0EFF30880FC
:102CF000EFF3098101B57246FFF7E6FE01BD00BFA3
:102D0000002310210348C21801333C2B82F8001322
:102D1000F9D1704700E100E0102080F311880848E5
:102D20004FF40061401880F30988EFF3148002210A
:102D3000084380F31488BFF36F8FFFF76BFC00002C
:102D4000E80F0020084B9B6883420BD1EFF305830B
:102D500043B1064B5A6842F080525A605A6A22F4D4
:102D600000425A6201F0CABD8408002000ED00E074
:102D7000014B1860704700BF080000202DE9F041AA
:102D8000054600244FF001080D4E0E4F2B78E2B29D
:102D900098181F280DDC726908FA00F333EA020262
:102DA00007D1736157F830301BB107EBC00251688F
:102DB00098476A780134E3B29A42E7D2BDE8F081DD
:102DC00000040140B4060020044B184400230133E2
:102DD000994200F8012BFADC704700BF3C0000204C
:102DE00010B4064B024618560123054993400C685F
:102DF00023430B6010BCFFF7E5BB00BF3C00002085
:102E0000000401401F2806DC0122034982400B68B0
:102E100023EA02030B6070470004014003292AD80B
:102E2000DFE801F0020E141F0122134B8240996863
:102E300021EA02019960D96821EA0202DA6070474A
:102E400001220D4B824099681143F3E701220A4B9E
:102E50008240D9681143D960996821EA02029A60D8
:102E60007047012303FA00F0034B9A6802439A600B
:102E7000DA681043D86070470004014030B50A4B4F
:102E800053F830408C4204D103EBC0056D68954285
:102E900005D034B943F8301003EBC0035A6000206A
:102EA00030BD6FF00F00FBE7B40600200022034B9B
:102EB00043F8302003EBC0035A607047B40600208B
:102EC0000E4B18680B68052B0BD883B1023B032B04
:102ED00003D8DFE803F01102020300201060002095
:102EE0007047182BFAD01C2B04D0142BF6D06FF09F
:102EF000850070474008F1E70148EFE7280000200F
:102F000000127A0070B502F06FFC00F03DFD324C0B
:102F1000324A6368324EC3F30313D35C20FA03F5DD
:102F2000B54202D82F4800F069FD236823F48023BE
:102F30002360236843F48033236023689803FCD51F
:102F4000636803F00C03082B15D12368990706D496
:102F5000236843F00103236023689A07FCD5636864
:102F600023F003036360636813F00C0FFBD1636805
:102F700023F0F0036360236823F08073236000F084
:102F800035F8236843F08073236023689B01FCD5E8
:102F9000636823F0F0036360636823F0030343F086
:102FA00002036360636803F00C03082BFAD1B54297
:102FB00002D90C4800F022FD0B4B0A4A00201A608F
:102FC000636823F4E06343F480636360636823F41D
:102FD0006053636070BD00BF001002402E6F000898
:102FE000FFA14A0400A24A0428000020054A5368B1
:102FF00023F47C1343F4E8135360536823F48003F1
:10300000536070470010024010B5044C2046FDF795
:10301000F3FD2046FFF7ACFE002010BD2130000874
:10302000F7B504460325124E8DF8070000F0B6FDF3
:10303000012200200DF1070100F07AFD074600F0A3
:10304000B7FD27B101233370204603B0F0BD3378BC
:10305000002BF9D0013D08D002F0C9FF0028E5D1CE
:103060000021142001F02CFCE0E73570ECE700BFF4
:10307000CE08002038B5036904465860084D28463C
:1030800002F09DFF40B16168AB6828461B680C31B7
:10309000984700EAE07038BD6FF01200FBE700BF10
:1030A000E4620008F8B51746B7F5001F0C461D4648
:1030B0004668026923D10F2301F003020432920013
:1030C000934043EA9103DAB22C49023251F82220AC
:1030D000190C02EA134391FAA1F2B2FA82F2D34038
:1030E000B2689A4209D12046FFF78CFE2046FFF7CE
:1030F000DDFE00212046FFF791FE0020F8BDB7F568
:10310000800F35D020461E49FFF7B8FE98BB0F222E
:1031100004F0030304339B009A4042EA9402D3B2C2
:103120009B0003F1804303F58033B1689E68100C67
:1031300026EA124690FAA0F2B2FA82F201FA02F2FC
:103140003243B5F1806F9A600ED0B5F1C06F0DD0EB
:1031500005F17E435942594149002046FFF75EFE82
:103160002046FFF73DFEC8E70121F6E70321F4E71B
:103170006FF08500C2E76FF00F00BFE7000001406D
:1031800001590008F8B505680446AB0500AF19D52C
:103190006E468AB06A460E4B53610E4BC2E9063347
:1031A00040F2013313840C4B42F8103F00234FF4DC
:1031B00014510A48FEF756FEB54625F400752D0455
:1031C0002D0C2560236843F480732360BD46F8BD51
:1031D0007E6D0008256E0008040000019865000857
:1031E0002DE9F04104691646D4E90D32054600AFD9
:1031F00082B9E26B1A4364D119B10020BD46BDE823
:10320000F0814068C16802F071FC0B6823F0010393
:103210000B60F2E7CBB1E8468AB06A46136240F22F
:103220000133294993845161284B2949C2E9061683
:1032300042F8103F00234FF434512648FEF712FEA7
:1032400000236363A36BC546B3B1E8468AB06A4600
:10325000214B53611E4BC2E9063640F20133138401
:103260001E4B42F8103F00234FF414511948FEF74B
:10327000F9FD0023C546A363E36BBBB1E8468AB002
:103280006A46136240F201331549938451610F4B32
:103290000F49C2E9061642F8103F00234FF434519B
:1032A0000C48FEF7DFFD0023C546E3636868C1688C
:1032B00002F01CFC0B686FF0040023F001030B60AC
:1032C0009CE7002BA7D1D7E79F6D00080500000100
:1032D000096E000898650008AF6D00080400000141
:1032E000BC6D000810B502694368126ADB68C2F35E
:1032F0004202012A04D0022A21D06FF0150010BD2D
:103300001F4A5868B1FBF2F220F03F0010435860AA
:10331000186A013220F03F0002431A62194AB1FBD9
:10332000F2F140F6FC72114208BF0421DA69002074
:1033300022F44F4222F0FF020A43DA61DFE7104A2B
:103340004FF49674B1FBF2F2586820F03F0010433E
:1033500062434FF47A74B2FBF4F25860186A013297
:1033600020F03F0002431A62074A914285BF0132B2
:10337000B1FBF2F148F2010141F40041D6E700BF90
:1033800040420F00400D03007F4F12002DE9F04333
:1033900085B000AF3D1D85E80E003E7B044616F06B
:1033A0000106D7F83080BA8ED0F8109031D133466C
:1033B000294602F0D8FB606802F08AFB41F28832AD
:1033C0000023484600F074FFE8B16D468AB06A46B3
:1033D0001E4B53611E4BC2E9063340F20133138486
:1033E0001C4B42F8103F00234FF414511A48FEF7CB
:1033F00039FD2046AD4602F08FFB6FF00400143714
:10340000BD46BDE8F083124A41462046FFF7E8FE7C
:10341000F5E743682946DE68012302F0A4FB6068F3
:1034200002F056FB736843F4C063736041F2883264
:103430000023484600F03CFF30B16D468AB06A4632
:10344000064B5361064BC6E7054ADDE7CB6D000826
:10345000116E00080400000198650008E16D000885
:10346000F66D00080022F0B50546436804691B4864
:103470000F46DE685968836889B0DB6801927BB9C2
:10348000174B0793022306936FF0040500234FF4B4
:103490008251144806AAFEF7E5FC284609B0F0BDA3
:1034A00001AA98470028EBDB276210344FF0FF3267
:1034B0004FF0FF33204600F0FBFE3368284623F030
:1034C00001033360336823F01A0333600199FFF777
:1034D00009FF0546204600F0C7FEDEE7E46200086B
:1034E000586E0008906500082DE9F04186B004464A
:1034F0004568066900AF4FF0FF320021304602F008
:1035000095FD20462B689847012206F110001146D0
:1035100002F08CFD4C4E304602F051FD034688B956
:103520004A4A7A6102223A616FF012044FF48251E2
:10353000474807F11002FEF795FC20461837BD46B4
:10354000BDE8F081D4F804803A460021D8F8140090
:1035500002F0CDFC002807DB3B68002219791868CF
:1035600000F088F8002844DA6E4688B06A460323E3
:103570003849C2E9051042F8103F00234FF4C25108
:103580003348FEF76FFCB546EB681A6842F4004218
:103590001A601A6822F400421A602B692E4A93427C
:1035A00047D03BD82D4A934245D02D4A934244D030
:1035B0002C4B7B6102233B614FF482510023244852
:1035C00007F11002FEF74EFC0021204641F01001E9
:1035D000FFF748FF041E34DA234B7B6102233B6173
:1035E00000234FF482511A4807F11002FEF73AFC0B
:1035F000A3E7B36830461B68D8F804109847002842
:10360000C2D01A4B7B6102233B6100234FF48251ED
:103610000F4807F11002FEF725FCB5E7144A934264
:103620000DD002F5C31202F520629342C0D10A21E7
:10363000CBE70621C9E70221C7E70421C5E7082136
:10364000C3E7002479E700BFE4620008866E000843
:1036500090650008A56E000840420F00A08601009A
:10366000801A0600DF6E0008FA6E0008C36E0008BC
:1036700040E133002DE9F34703680446C3F38F2587
:10368000C3F38923FBB101228A4223D3334A15F0C5
:10369000010F906940F00100906192694FEA132098
:1036A00002F001020192019A2D4AC3F3440300FA89
:1036B00003F009BF5368D369034343F0E06316BFC7
:1036C00003435360D361274F04EBC106A6420ED1DA
:1036D000002007E054F83200C0F38920984204D05B
:1036E0006FF0150002B0BDE8F0870132CCE7D4E9F5
:1036F000002512F003090FD145F04105C2F3870AF6
:10370000C2F383120A2AEBD857F82280B8F1000FCF
:1037100013D16FF01200E5E7B9F1020FEED0B9F165
:10372000010F07D115F4C07F0CBF45F0020545F02D
:103730000405E3E745F00105E0E7404602F03FFC01
:103740000028E6D04B462A4640460AF00F0102F018
:103750007CF9002804F10804B8DAC3E7001002403D
:1037600000000140206700084FF0E02310B59A697F
:103770001969986911F4803F084B094901D18242C7
:1037800006D21A680C6822441A604FF0E0221269CF
:103790001B680A681344181A10BD00BFD007002028
:1037A000D40700201022094B002083F8232041F683
:1037B0001F42074B1A60074B18604FF0E0235A6115
:1037C00098611A6942F007021A61704700ED00E043
:1037D000D4070020D007002010B5FFF7C5FF10491F
:1037E000104B0868D3E90042001942F10002C3E916
:1037F000000200230B604FF4E1530B4AD2E9004171
:10380000001BB0FBF3F043431B1941F10001C2E977
:10381000003101F0A9F9BDE81040FEF7A3BF00BFD9
:10382000D007002078050020700500202DE9F04128
:10383000364F00295ED0421C0AD14FF0E0221369B6
:1038400023F0010313614FF07F433B60BDE8F0813B
:103850003E68012854DD40F61918404501DC00F1AE
:10386000FF384FF01003EFF3118583F31288BFF395
:103870006F8FFFF779FF4FF0E02325499A69D1E96F
:10388000004300194FF0000443F10003C1E90003B5
:10389000204B1C60204B1B68C41A34D44FF4E15CED
:1038A0000CFB084404F5E0541F34B4FBFCF4181A74
:1038B0000CFB0400B0F5806F25D9184B984228BF47
:1038C00018464FF0E023386001389C6958610020A9
:1038D000A2429861A2EB040338BF9B19D1E9000210
:1038E0001B1842F10002C1E9003285F31188BFF3D1
:1038F0006F8FABE7431C3E68ABD140F61910AEE7C3
:103900004FF00008ADE74FF48060DAE7D4070020FD
:1039100078050020D00700207005002020DFFF0080
:1039200038B54FF01003EFF3118583F31288BFF31E
:103930006F8F084B1C68084B1B68E41AFFF714FFD5
:1039400085F31188BFF36F8F4FF4E1532044B0FB30
:10395000F3F038BD780500207005002038B54FF031
:103960001003EFF3118583F31288BFF36F8F054BBC
:103970001C68FFF7F9FE85F31188BFF36F8F2044B1
:1039800038BD00BF7805002030B5184B87B002ACB9
:1039900003F11005224618685968083303C2AB4288
:1039A0001446F7D140F201231149ADF804304B68B9
:1039B00003F00C02082A17D1C3F3834218326A4479
:1039C000DB0312F8100C0CD54B680A4AC3F34043D2
:1039D000504318336B4413F8143CB0FBF3F007B0BA
:1039E00030BD054B5843FAE70248F8E73E6F000840
:1039F0000010024000127A0000093D00D8B10F4BC0
:103A0000984216D80E4B984294BF002001200D4AD0
:103A1000136823F0070303431360136803F00703DD
:103A200098421CBF136803F00703C01A18BF012097
:103A300070470220EBE70120704700BF006CDC02FA
:103A400000366E010020024010B5124CA822002161
:103A5000204601F005FE03230F4A236163610F4BEB
:103A6000A261E3614FF4806323620023A362636277
:103A7000E36222660A4A62661022A266094A236746
:103A8000E366636712F8011DE1540133102BF9D18D
:103A900010BD00BFD80700204F6F0008DF080020CE
:103AA000CF080020686F00082DE9F84F1826DFF8CE
:103AB0007C80074606FB008E00FB0666DEF824408D
:103AC000DEF828C046447368A4458946154603EBD2
:103AD000040022D8DEF820B0ABEB040A0AF1FF3371
:103AE0009A4203D801F0B1FD2C440FE063449A429E
:103AF00019D852462C4401F0A8FDB4EB0B0405D0B4
:103B00002246706809EB0A0101F09FFD182301208D
:103B100003FB07835C62BDE8F88F0CF1FF3CACEB64
:103B2000040C9445DED20020F5E700BFD807002042
:103B3000F8B5182700FB0775124B0E461D4407FB0E
:103B40000033DB6A1446012B0AD0022B14D023B9B0
:103B5000284602F0DFF9844208D900242046F8BD47
:103B6000284602F0D7F9844228BF0446224631464F
:103B7000284602F0D8F9F1E72846BDE8F84002F0FF
:103B8000EDB900BFD80700201822034B02FB003319
:103B90009A6A586A801A7047D80700204FF0FF329F
:103BA0004FF0FF33014800F0A9BA00BF9C0000208D
:103BB000014800F01DBB00BF9C00002070B504460A
:103BC00088B00D46466802F0FAF910B90F4801F0C6
:103BD0006AF90022B3888DF807208DF8102006229C
:103BE0000DF1070102910692012102220391059530
:103BF0008DF81C20A16820468D6802A9A84710B145
:103C0000034801F050F908B070BD00BF696F0008AB
:103C10007D6F000808B54368186802F0D0F910B944
:103C2000024801F040F9002008BD00BF696F00089C
:103C300030B5436889B09B88059106210DF10705D1
:103C4000002402950691012507218DF80740039570
:103C50008DF810408DF81C10826802A99468022229
:103C6000A04710B1024801F01EF909B030BD00BFF5
:103C70007D6F000838B5044678B1FFF76FFE054642
:103C800006480023A4FB0001054AFCF751FA04464C
:103C9000FFF764FE431BA342FAD338BD00A24A04D7
:103CA00040420F0010B5044686B0FDF7FBFF074BFE
:103CB000059302230493064800234FF4825104AA7B
:103CC000FEF7D0F8204602F085F900BF926F000899
:103CD000B06500082DE9F04786B005460E4600AFF6
:103CE0004FF01003EFF3118883F31288BFF36F8F47
:103CF00000F0FEFD042D98BF2C4BE9468AB0044627
:103D00006A4694BF53F82530294BD36140F2013302
:103D10004FF0000A93842749274BC2E90515C2F8E2
:103D200020A042F8103F4FF4315153462348FEF78C
:103D300099F8CD467EB1F369C3F308035BB1204B1C
:103D40007B6102233B614FF4825153461B4807F1CC
:103D50001002FEF787F82CB1204602F051F908B1A5
:103D6000037803B91748E9468AB06A46164BD06112
:103D7000C2E9053440F201331384144B42F8103F7A
:103D800000234FF411510D48FEF76CF83146CD4633
:103D90002846FFF787FF88F31188BFF36F8F20460F
:103DA000FEF7D0FF1837BD46BDE8F087586700081A
:103DB000A16F0008B76F000805000001B06500089A
:103DC000DF6F0008AF6F00080070000804000001FA
:103DD000104B70B553F82040013053F82060A642D4
:103DE00000D870BDD4E9003595B153B12846984745
:103DF00038B10028B8BF4042FF28A8BFFF20EB68B9
:103E00001870EA68537843F0010353700834E6E70A
:103E10009847FBE76C670008012208B5094B0320AF
:103E20001A70FFF7D5FF00F0C5FF0420FFF7D0FFA1
:103E300000F018F9FCF7E6FA034A137B23F00103BC
:103E4000137308BDDF0C0020F005002008B50348FF
:103E5000034A0021121A02F0C6F808BDC000002073
:103E6000E40C0020702370B5194E012203FB00669C
:103E7000002386B0CDE904230F220193CDE902325D
:103E800014230446134D144903FB005501EB002194
:103E9000124B4FF480723046009500F08DF8737B22
:103EA0002C7423F0040373730D4B013403EBC42310
:103EB0006B60EE60BFF35B8F0A4B53E8001F01316C
:103EC00043E80012002AF8D1BFF35B8F06B070BD43
:103ED0008005002084080020E81700200560000805
:103EE000E80F00208008002080B50020A2B0FFF776
:103EF0006FFF2A4B83F30888294C00256369294EFC
:103F000043F400736361F02384F82230E57725766B
:103F10006576A57684F82050636A234F43F4E02346
:103F20006362FEF7DBFEFEF7D5FA4FF0FF33A362C4
:103F3000E362FDF729FE40F20113ADF8243006AB31
:103F4000B3601F9502F03AF80120FFF741FF02200D
:103F5000164CFFF73DFF00F029FC154B74610593EB
:103F6000012314494FF48062CDE9035320463B46B8
:103F7000CDE90155009500F01FF80646627B20460A
:103F800022F00402627302F097F82846FFF76AFFF6
:103F90003A4631462046FEF7BFFB00BFE817002037
:103FA00000ED00E084080020193E0008F005002024
:103FB00062700008E81800207FB50C9E00F15805DB
:103FC00006730426C0E916550025044646730732D9
:103FD0000B9E22F0070286738E180A9AC0E90655D6
:103FE0008560C5730292099A0192089A009232463E
:103FF000FEF776FB044B65659B6803B15B6E30464C
:10400000636604B070BD00BF84080020F0B50025D1
:1040100087B00595109DDDE9127604950F9D044645
:1040200003950E9D02950D9D01950C9D0095FFF742
:10403000C3FFB6F1FF3F08BFB7F1FF3F05D056EA17
:10404000070305D1204600F031FB204607B0F0BD44
:104050003A463346024904F1180000F00FFDF4E738
:1040600041610008F0B5224C224D87B02646AE4291
:1040700004F12C040BD300F069FB0A261C4C1E4FE4
:10408000AC4220D307B0BDE8F04000F073BB54F859
:10409000043C059354F80C3C049354F8103C0393EF
:1040A00054F8143C029354F8183C019354F81C3C07
:1040B000009354E9092354E90B01FFF77DFF54F8FD
:1040C0002C3C5E65D2E7626A531C09D022EAE27298
:1040D00082FB062352EA0301206803D100F0E6FACE
:1040E0002C34CDE73946183000F0C8FCF8E700BFA3
:1040F0007865000878650008416100082DE9F34102
:10410000044617461E464FF01003EFF3118883F361
:104110001288BFF36F8FC368334A7BB180689168A0
:10412000884219D057EA060318D188F31188BFF3E3
:104130006F8F6FF00F0002B0BDE8F081916891F9C8
:104140000E100133E36093682161A36088F3118846
:10415000BFF36F8F0020EEE72169F2E791F90E10AF
:1041600090F90E306FF07E029942A8BF1946914235
:10417000B8BF11468B422EDD01F050FF05462246A6
:104180004146CDE90076194800F01AFA0028E1D03E
:104190004FF01003EFF3118683F31288BFF36F8F94
:1041A000A068D0B1236821699C420AD04BB193F931
:1041B0000E309942A8BF19466FF07E039942B8BFEE
:1041C000194601F02BFF40B13146084800F05CFA77
:1041D0006FF00A00AFE70025D1E7002DF4D186F398
:1041E0001188BFF36F8FF3E784080020E00C0020F4
:1041F00038B5836804466BB3194A926893422CD150
:10420000C368012B03D9013BC360002038BD4FF0C8
:104210001003EFF3118583F31288BFF36F8F0169E9
:10422000806801F0FBFE204601F0A5FFA06058B1B8
:1042300090F90E2022610022C26601F03DFF29465E
:10424000084800F021FAE0E7E06085F31188BFF349
:104250006F8FDAE76FF01500D8E74FF0FF30D5E742
:1042600084080020E00C002038B504464FF010030D
:10427000EFF3118583F31288BFF36F8F01F07BFF9B
:1042800048B10022C26601F017FF2946BDE8384058
:10429000064800F0F9B9D4E902329A4218BF013356
:1042A000A36085F31188BFF36F8F38BDE00C002049
:1042B00013B54FF01004EFF3118184F31288BFF3AC
:1042C0006F8F846844B1013C846081F31188BFF32F
:1042D0006F8F002002B010BD52EA030406D181F3B3
:1042E0001188BFF36F8F6FF00F00F3E7CDE9002364
:1042F0000246024800F064F9ECE700BFE00C002041
:1043000070B504464FF01003EFF3118583F3128864
:10431000BFF36F8F6FF00A06204601F02CFF18B133
:10432000C66601F0C9FEF7E7A0602946BDE8704007
:10433000014800F0A9B900BFE00C0020C3897F2B21
:1043400012D80A4B1B6863B1094B90F90E201B6809
:104350009A4209DB437BDB0606D1064BC31A18BF22
:10436000012303F0010070470023FAE7AC080020A6
:10437000A8080020800500200122044BC01A044B2D
:10438000C0105843034B1A54704700BF600600200A
:10439000ABAAAAAAE00C002070B50E4B0E4C1E7CF6
:1043A000182303FB06440546204601F016FF0022B1
:1043B0000A4B28469A55FFF7C1FF48B1084B2046E3
:1043C000BDE870401A680749013AD31700F056BBA0
:1043D00070BD00BF8408002060060020E00C0020B3
:1043E000AC0800207943000838B50D4D2B4653F832
:1043F000184F9C4200D004B9EC68AB6838B95A7BBE
:10440000D20604D1A26912B9DA897F2A05D89C4262
:1044100002D02046FFF7C0FF23466B6138BD00BFC6
:104420008408002070B590F90D200146002A437BD6
:1044300004DA03F07F03437301F004FE154A4B7B5B
:10444000104663F07F034B7350F8183FD4698342E2
:1044500008BF002323B9C1E900042160D1610CE049
:1044600091F90E5093F90E60B5420ED0AE420CDDBC
:104470005868C1E90030016059609068BDE870403B
:10448000431A58425841FFF7AFBF9C42E3D01B6824
:10449000E0E700BF8408002070B490F90D30427B43
:1044A000002B29DBD30627D183692BBB134962F08C
:1044B0007F0242730A4652F8184F944218BF2346AF
:1044C000CC6923B9C0E900242060C8610CE090F9F0
:1044D0000E5093F90E60B5420AD0AE4208DD5A681C
:1044E000C0E9003210605860002070BCFFF77CBF4C
:1044F000A342E7D01B68E4E770BC70478408002043
:1045000008B590F90D200146002A437B04DA03F038
:104510007F03437301F096FD044B9868431A584299
:104520005841BDE80840FFF75FBF00BF8408002086
:1045300070B515461C46064601F096FDB4F1FF3FE6
:1045400008BFB5F1FF3F08D02A46234606F1180000
:104550000249BDE8704000F091BA70BD41610008A9
:1045600038B54FF01003EFF3118583F31288BFF3D2
:104570006F8F104B104A9C681068A04206D1FFF75D
:104580000BFF85F31188BFF36F8F38BD00211B7CB3
:1045900011600A4AD35C002BF3D02046FFF7CEFE11
:1045A0000028EED0637BDB0602D12046FFF73AFFFE
:1045B0002046E4E784080020A4080020E00C002046
:1045C00070B50C480C4D86680C462E601146DDE92E
:1045D00004234FF01006EFF3118586F31288BFF322
:1045E0006F8F8068FFF7A4FF2046BDE87040FEF79C
:1045F00029B800BF84080020A4080020F8B50446AC
:104600004FF01003EFF3118683F31288BFF36F8F1F
:10461000437B49B2DA0619D18569BDB903F07F033E
:10462000437301F00FFD437B164A63F07F0343732E
:104630001346817353F8180F984218BF0546D06986
:104640005DB9C4E900300460D46111E00020A173B9
:1046500086F31188BFF36F8FF8BD95F90E70B942DC
:104660000BD08F4209DD6B68C4E900531C606C609D
:104670000120FFF7B9FE0120EAE7A842E1D02D684A
:10468000DEE700BF8408002049B9EFF3058030B9A8
:10469000054B5A699B689A4201D0FDF7D3BF81F35D
:1046A0001188BFF36F8F70478408002010B54FF05A
:1046B0001002EFF3118482F31288BFF36F8F427BF5
:1046C000510704D484F31188BFF36F8F10BD22F01B
:1046D00004024273FFF7E0FE2146BDE810400148A6
:1046E000FFF7D2BFE10C002070B50446183001F08E
:1046F00074FD4FF01003EFF3118683F31288BFF3BC
:104700006F8F94F90D20637B002A05DA03F07F0395
:104710002046637301F096FC0B4D637BA86843F061
:1047200010036373031B58425841FFF75DFE86F385
:104730001188BFF36F8FAB68A34203D1BDE870400F
:1047400001F041BD70BD00BF840800204FF0100390
:10475000EFF3118183F31288BFF36F8F044B9A68D4
:10476000D37B013BD37381F31188BFF36F8F704705
:104770008408002010B54FF01003EFF3118483F389
:104780001288BFF36F8F084B00209A68D37B0133E8
:10479000D373FFF729FE84F31188BFF36F8FBDE851
:1047A000104001F010BD00BF84080020024B03F14F
:1047B0001802C3E90622704784080020F8B54FF0BC
:1047C0001003EFF3118583F31288BFF36F8F19493C
:1047D0008868437B03F07F03437301F033FC084692
:1047E0008B685A7B62F07F025A7350F8182FCC699D
:1047F000824208BF002222B9C3E900042360CB61D2
:104800000CE093F90E6092F90E70BE420ED0B742E2
:104810000CDD5168C3E900210B6053600120FFF7F4
:10482000E3FD2846BDE8F840FDF70CBFA242E3D007
:104830001268E0E78408002050EA01032DE9F04106
:1048400005460E4603D1FFF7B9FF00202CE0831C7C
:1048500071F1FF332ADB01F0D6FC2C184FF0100366
:10486000EFF3118883F31288BFF36F8F114F124B50
:10487000B8681860FFF744FEB86810492A46334606
:10488000183000F0FBF8BA684046537B43F0100341
:104890005373FDF7D7FE01F0B6FC201A63EB030358
:1048A000012873F10003D0DBBDE8F0816FF0010453
:1048B000241AD3E784080020A408002041610008DE
:1048C000B1F1FF3F08BFB0F1FF3F08B506D1074B7C
:1048D0009868FFF709FF4FF0FF3008BDFFF7ACFF06
:1048E0000A220023C117FBF723FCF6E78408002007
:1048F000014B9868704700BF840800202DE9F04103
:1049000004464FF01003EFF3118683F31288BFF3D0
:104910006F8F037BD9070BD586F31188BFF36F8F99
:10492000404080F311884FF0040002DFBDE8F081C1
:10493000437B1A0704D586F31188BFF36F8FF5E721
:1049400023F0200242F00801D20920D14173A3686C
:1049500013B1204601F07EFB04F1180001F03DFC8C
:104960004FF0000804F15807A56DBD4200D0B5B95D
:104970000120FFF739FD104B9B68A342DBD1EFF319
:104980000583002BD7D13046FDF75CFED3E703F05B
:104990005F0343F00803437301F054FBD7E7284655
:1049A00001F058FB05F1180001F017FC2846C5F886
:1049B0006C80FFF771FDD7E78408002008B5064832
:1049C000064A0749121A01F010FBBDE80840054AE3
:1049D0000549064801F009BB00000020C000002086
:1049E000AC70000800000000AC700008000000205F
:1049F000034B1B680BB9FEF793BF0020704700BF45
:104A0000B008002010B50E4B1C689C4204D1FFF783
:104A1000EFFF6FF0004010BDFFF7EAFF002CF8D069
:104A2000D4E904321B1A62EBE072B3F1004F72F169
:104A30000001EEDA002AACBF18460020EBE700BF09
:104A40003400002030B570B10B4B5B6898420AD03F
:104A5000036843B1D3E90421D0E90445121941EBBD
:104A60000501C3E90421D0E9003213605A60002334
:104A7000C0E9003330BD00BF34000020B3F1FF3F78
:104A800008BFB2F1FF3FF8B504461D4616465CD09C
:104A900081604FF01003EFF3118783F31288BFF3A7
:104AA0006F8F013275F1FF3324DA6FF001032C4967
:104AB000D1E900209B1A4FF0FF3262EB00009E1BF1
:104AC00060EB0500012E70F1000301DA01260020E1
:104AD000C4E90460234ED6F800C07568B44508BF29
:104AE0004FF0000CBCF1000F0DD1C4E900652C6043
:104AF00074601CE0FFF77CFF013645F100053618B5
:104B000045EBE070E4E7DCE90420D4E904319342AA
:104B100071EB000E1ADAD21ADCF8043060EB0100F7
:104B2000CCE90420C4E900C31C60CCF8044033681D
:104B3000B34206D09C4204D1FFF764FF0021FEF788
:104B400075FE87F31188BFF36F8FF8BD9B1A61EB79
:104B50000001AC45C4E90431C7D0DCF800C0C1E7AE
:104B600078060020340000202DE9F84F4FF01003A4
:104B7000EFF3118C83F31288BFF36F8FDFF8B0A0CF
:104B8000DFF8B0900024C9F80000DAF80000002532
:104B9000504508BF0020284FE046D7E90021D9F84A
:104BA000003080B3D0E9046C4FEAE37EB3427EEB81
:104BB0000C0B05DAF61A6CEB0E04C0E9046422E073
:104BC000B21841EBE671C0E90445C7E90021FFF7DF
:104BD00039FF88F31188BFF36F8F836898474FF0D0
:104BE0001003EFF3118883F31288BFF36F8FD9F8A6
:104BF0000030DAF800009B1B5045C446C9F800306D
:104C0000CAD1D7E9002100249A1841EBE373C7E920
:104C10000023C9F80040FFF7F5FE2146FEF706FE27
:104C200088F31188BFF36F8FBDE8F84FFFF798BC8A
:104C300034000020B00800207806002010B54FF0A6
:104C40001003EFF3118483F31288BFF36F8FFFF724
:104C5000CFFE0346054AD2E90001181841EBE37183
:104C600084F31188BFF36F8F10BD00BF780600205A
:104C7000F8B504464FF01003EFF3118783F3128861
:104C8000BFF36F8F026822B187F31188BFF36F8F74
:104C9000F8BDD0E90A36581C46F10001022871F12E
:104CA000000127D3012B76F10001BCBF012316467A
:104CB0005D1E46F1FF3601F0AAFA013041F1000114
:104CC000401946EB0101012871F100013ADB01F0C6
:104CD0009EFA013041F100016FF00102401946EBEC
:104CE00001034FF0FF31121A61EB0303204618490C
:104CF000FFF7C4FE236B01332363236A73B187F389
:104D00001188BFF36F8F2046236A98474FF0100336
:104D1000EFF3118783F31288BFF36F8F54F8185F96
:104D2000A542B1D0002DAFD0284601F0D5F900231F
:104D3000EB6687F31188BFF36F8F2846BDE8F84014
:104D400001F0BAB96FF001024FF0FF33CEE700BFB8
:104D5000714C0008B3F1FF3F08BFB2F1FF3F2DE9EE
:104D6000F047DDE9086705461C46914698461CD089
:104D7000531C74F1FF3309DB012A74F10003BCBF3B
:104D80000122002412F1FF3944F1FF38284601F0D6
:104D900024FA0023C5E90A672B634A46434628469E
:104DA000BDE8F0470249FFF769BEBDE8F08700BFE4
:104DB000714C0008014800F076B800BF6A70000826
:104DC00070470A22030900F00F0002FB030070473E
:104DD0002DE9F04706460D46174698462BB34FF08F
:104DE000000A98F8004093F80190DB78A40004EBE7
:104DF000430498F802301C444444CA4509D3394658
:104E00003046AC46D8F8042008F10803BDE8F04766
:104E1000604714F8013B0AF1010A204648F8234094
:104E200000F00CFC01300444E7E76FF01500BDE82A
:104E3000F08770B5002502462846144614F8013B59
:104E40000BB9184609E098B18D4207D1702B04D0F8
:104E5000A3F140023A2A0BD8002070BDA3F140060E
:104E60003A2E05D853780135941C002BE9D0002048
:104E7000252B224608BF80F00100DEE700207047A6
:104E800030B58A680C68551C14B14B68934201DC3C
:104E90008D6030BD013B934208BF00228D600CBF86
:104EA000E254A054F5E70FB407B504A951F8040B78
:104EB000019100F026FB03B05DF804EB04B07047ED
:104EC0000CB407B504AB53F8042B0193FBF79AFE1F
:104ED00003B05DF804EB02B07047044608B508461D
:104EE00011461A46A047FFF703FDFDF72BFFD0E957
:104EF000002130B54FF03333A2FB0324D51843EB28
:104F00000405A1FB0313521844EB0304521944F1A6
:104F10000002891843F10003C0E9001330BD10B549
:104F20000A680346002A0FDD013A0A6044680A2035
:104F30001A68A2FB001200FB0422100F22F070423C
:104F4000C3E90012303010BD3020FCE72DE9F84FE6
:104F50009A46D37880466F2B0F461546A3F1410B36
:104F600029D024D8582B0CBF10260A26DDF828900B
:104F70003246002340463946FBF7DAF8092AD4B214
:104F80001ED83034B045E4B277F1000709F8014D7E
:104F900001D3D14511D82B789B0605D5082E15D104
:104FA000AB7843F00803AB704846BDE8F88F03F0D8
:104FB000F703702BD7E70826D8E780460F46D7E7D8
:104FC000BBF1190F94BF37345734DBE7102EEBD108
:104FD000AB7843F01003E6E72DE9F0410746884639
:104FE00015461E461446B44205D30EB1601B08E0B8
:104FF0002378002BFAD0414614F8010BB84700285B
:10500000F1DABDE8F08110B50369024613F008003B
:1050100009D11368D4689C429BBF0120126AE31A2D
:10502000D31A0B6010BD00231846FAE713B501A987
:105030000446FFF7E8FF20B1019BE268013B1344FF
:105040000193206A019BC01A013802B010BD10B54F
:10505000044650182269236AD20702D5013B184042
:1050600010BD984228BFC01AFAE710B504460A4698
:10507000C168FFF7ECFF2369E06023F008032361B8
:1050800010BD38B50D46C2698B00016843F00203BC
:10509000044642F8213001682A46FFF7D8FFE3684A
:1050A0006168984208BF2369206008BF43F0080385
:1050B0002A46204608BF2361FFF7C9FF606038BD5C
:1050C0002DE9F74FC768C6699B4616F82730044696
:1050D00003F00303022B884691464FF0000306EBD2
:1050E000870A09D01360CBF800302369990710D4E0
:1050F000002003B0BDE8F08F56F827101360890830
:10510000CBF80030F1D0FFF7B0FFE368A3600120D7
:10511000EFE7A3695046984716F827300546DA07A7
:10512000E6D513F002031DD0B8F1000F03D04146BD
:105130002046FFF7A6FF61682A462046FFF787FF53
:10514000D4E902319942606004D12A462046FFF733
:105150007EFFA060A3682360E360236943F0080337
:105160002361D4E7014620460193FFF77EFFE26802
:10517000A260B8F1000F04D02168E269019B42F8F7
:10518000213005EB0802CBF8002021682046FFF70C
:105190005EFF2369206043F00803236116F827307F
:1051A0006FF3000306F82730C9F800A0AFE770B529
:1051B00004461546FFF74BFF2368834205D1236958
:1051C000216023F00803236170BDE269AB0043F066
:1051D000020342F8213061682A462046FFF737FF74
:1051E0006060F1E738B5036904465B0706D5456A98
:1051F000FFF71CFF85422CBF6562606238BD38B581
:105200000D4604461C22002100F02AFA0022EB6819
:10521000A361AB6863612B68E3616B6862622362C0
:105220002A6923B1591E194208BF42F001022261C6
:10523000012204F128000021BDE8384000F0F6BE4C
:105240002DE9F04F002587B00093036A04468B4296
:105250000E469246A946039505953AD34FF01003A2
:10526000EFF3118B83F31288BFF36F8F059AD84643
:105270002AB129462046FFF79AFF0023059304A987
:105280002046FFF7C0FE04990746B1422AD32268A0
:10529000E369204613F8221003EB820921F0030191
:1052A00003F8221021683246FFF7D1FEE368206040
:1052B000984212D0002788F31188BFF36F8F0399AB
:1052C00029B162690AB12046904700230393002F59
:1052D000C4D1484607B0BDE8F08F236943F0080306
:1052E0002361E7E718B12046FFF7CBFEE3E7009B19
:1052F0005AEA03031AD0019100F079FE0199A8B986
:105300008BF31188BFF36F8F5246009B04F1280086
:10531000FEF7CEFF4FF01003EFF3118883F31288EE
:10532000BFF36F8FB0FA80F77F09C4E7204605AB63
:1053300003AA2568FFF7C4FE0746BCE770B504461C
:10534000836908460D46984702464FF01003EFF375
:10535000118683F31288BFF36F8F2B78204643F0BA
:1053600001032B706168FFF772FE60602046FFF753
:1053700039FF86F31188BFF36F8F70BDF8B504460F
:105380004FF01003EFF3118683F31288BFF36F8F92
:10539000236913F0080FA36802D16268934200D911
:1053A000226AD21AE1692AB986F31188BFF36F8F96
:1053B000002733E011F8232001EB830712F00300EC
:1053C000F2D0022803D151F82350AD0805D1D007FF
:1053D00012D43846A36998470546A1682A46204654
:1053E000FFF735FE2946A0602046FFF73EFE86F314
:1053F0001188BFF36F8FC3E742F0020201F8232048
:10540000A3693846A5689847294602462046FFF713
:105410001EFEA06086F31188BFF36F8F3846F8BD7B
:10542000F8B50446836908460D46984706464FF08E
:105430001003EFF3118783F31288BFF36F8F2B787C
:105440006FF300032B7023699B0705D5E268E369BE
:1054500003EB82039D421AD12B786FF341032B702B
:10546000D4E90231994204D132462046FFF7EFFDDC
:10547000A06031462046FFF7F8FD87F31188BFF39F
:105480006F8F04F12800BDE8F840FEF7EDBE2B68F1
:1054900060F39F032B60F0E702698368120702D470
:1054A00042689A4200D2026AD31A181E18BF01201D
:1054B0007047704703785B075FBF03684288C3F398
:1054C0004A2303EB12105DBF173020F0070080085D
:1054D00000207047002070470346BFF35B8F53E8FE
:1054E000000F421C43E800210029F8D1BFF35B8F75
:1054F000704708B500F08BFE0A220023FAF718FE69
:1055000008BD1FB50023CDE902011A461946184609
:10551000CDE90033FCF72AFD05B05DF804FB01205E
:10552000FCF7E2BA0020704770B5D2E901369B1B48
:105530008B420C4615460AD313680A460146981951
:1055400000F083F82046AB682344AB6070BD6FF079
:105550001B00FBE770B50E4615461946044618B900
:10556000BDE87040FCF7C0BA33B1C2F34A23103033
:10557000120D184400F069F8C4E900562046BDE851
:105580007040FCF73BBCF8B506460D4614461F4676
:10559000214628463A46B047241A0544F8D1F8BDBA
:1055A00013B500240094FBF743FB02B010BD10B507
:1055B000426804460CCA81680068FFF7E4FF0022D5
:1055C00063681A6010BD38B54B6805461A68CB6829
:1055D0000C469A4202D10846FFF7E9FF6368BFF321
:1055E0005B8F53E8002F511C43E800100028F8D1CE
:1055F000BFF35B8FA36800209D5438BD0A2838B5DF
:1056000004460D4602D10D20FFF7DDFF2946204656
:10561000FFF7D9FF002038BD01460068FCF76EBFD8
:1056200000210120FCF76ABF08B5FCF7EFFFBDE8D9
:105630000840FDF797B80023FCF714BC0346002090
:105640001A5C02B970470130FAE710B5431E0A44EC
:10565000914200D110BD11F8014B03F8014FF7E75B
:105660000346C9B20244934200D1704703F8011BBC
:10567000F9E74FF0FF307047034600201A5C0AB18B
:10568000884200D170470130F8E708B506220121B1
:105690000020FDF799FB002206201146FCF7A0FF31
:1056A000012107220846FDF78FFB00220720114643
:1056B000FCF796FF082201210220FDF785FB00225E
:1056C00008201146FCF78CFF092201210320FDF779
:1056D0007BFB002209201146FCF782FF0A220121F0
:1056E0000420FDF771FB00220A201146FCF778FF29
:1056F000052117220846FDF767FB002217201146F7
:10570000FCF76EFF282206210A20FDF75DFB002230
:1057100028201146FCF764FF002008BD0B68A3F1A8
:105720001402082A9FBF03F1804303F504331A686B
:1057300049689BBF00200A436FF085001A607047DC
:105740000B68A3F11402082A9FBF03F1804303F5FD
:1057500004331A6849689BBF00208A436FF08500B4
:105760001A6070470868A0F11403082B0AD800F1EA
:10577000804000F5043002684B68934314BF012059
:1057800002207047022803D005280CBF0220012008
:10579000704710B50B68022B01D0052B21D14A6848
:1057A000FF2A1CD0D3B203F1804303F504331868F9
:1057B000C2F34234C2F3042204FA02F220EA0202E3
:1057C0001A604968CBB203F1804303F504331868CB
:1057D000C1F30242C1F304218A4002431A6000204F
:1057E00010BD6FF08500FBE77047436800205B68E1
:1057F0009B680B60704743685B68D86842400A400A
:105800004240DA6000207047436800205B681961FD
:105810007047436800205B68596170474368002007
:105820005A68D3684B40D360704710B503699868D5
:10583000F8B1884219D1DC680868A142986000D1AB
:10584000D860002008602AB19A680A60DA68996016
:1058500002B9D960002010E0814206D108682060BA
:10586000D8688142EDD1DC60EBE70446006800288F
:10587000F2D1002AE8D16FF0150010BD91FAA1F322
:10588000B3FA83F370B50D0E0F2691FAA1F1B1FAB8
:1058900081F144599B0006FA03F3890024EA0304CA
:1058A0008A402243425170BD91FAA1F3B3FA83F3C7
:1058B00070B50D0E032691FAA1F1B1FA81F14459A8
:1058C0009B0006FA03F3890024EA03048A4022437A
:1058D000425170BD91FAA1F3B3FA83F370B50D0E86
:1058E000042691FAA1F1B1FA81F144599B0006FA1C
:1058F00003F3890024EA03048A402243425170BD25
:1059000070B50B46896821B101255E680C68854039
:1059100001B970BD8A682A4002D030464B6898476A
:105920001CB1236821461C46F2E72346FAE770B50E
:1059300001241546072904FA01F2C8BF01F0070146
:105940004FEA0223C5BF8C401C4342EA030444F0E3
:105950008064EA07406822D415F0060204D121468B
:10596000BDE87040FFF78ABF022A01D10422F6E7A2
:1059700005F4C075802D6FEA14264FEA14220BD16E
:1059800092FAA2F20123B2FA82F2C1689340314046
:105990000B430822C360E2E7C3683340F9E76B06B4
:1059A00054BF012209222146FFF768FF15F02002AB
:1059B00018BF0422214605F01805FFF78BFF082DBC
:1059C00005D102222146BDE87040FFF76DBF0DB939
:1059D0000122F7E70322F5E713469A0310B518D51D
:1059E0009C070FD55A072DD52122DC060CD542F095
:1059F000840213F4002F44681BD0012364688B4099
:105A0000236111E00122F0E79C06F2D542F4827294
:105A1000EFE713F4803207D0DC0611D413F0200F27
:105A200014BF4FF4827202224068FFF780FF00200B
:105A300010BD5B03F8D5012364688B406361F3E715
:105A40008422F1E76FF08500F2E7F8B51F460446BF
:105A500040680E461546FFF76AFF032F08D1012361
:105A600003FA06F66368AA055B684CBF1E615E61B7
:105A70000020F8BD436982B00193019B83690193C3
:105A8000019B02B07047034600695B68426CDB68AB
:105A90008AB1013A42641AB95A6822F480625A60A3
:105AA000826C1969127821F0FF010A431A61836C34
:105AB000013383647047C26A910742BF1A6842F497
:105AC00000721A605A69520748BF1B69FEF7CCBBC7
:105AD000C3685A6842F480725A605A6842F400728D
